{
  "_format": "hh-sol-artifact-1",
  "contractName": "EduVaultSBT",
  "sourceName": "contracts/EduVaultSBT.sol",
  "abi": [
    {
      "inputs": [
        {
          "internalType": "address",
          "name": "initialOwner",
          "type": "address"
        }
      ],
      "stateMutability": "nonpayable",
      "type": "constructor"
    },
    {
      "inputs": [
        {
          "internalType": "address",
          "name": "sender",
          "type": "address"
        },
        {
          "internalType": "uint256",
          "name": "tokenId",
          "type": "uint256"
        },
        {
          "internalType": "address",
          "name": "owner",
          "type": "address"
        }
      ],
      "name": "ERC721IncorrectOwner",
      "type": "error"
    },
    {
      "inputs": [
        {
          "internalType": "address",
          "name": "operator",
          "type": "address"
        },
        {
          "internalType": "uint256",
          "name": "tokenId",
          "type": "uint256"
        }
      ],
      "name": "ERC721InsufficientApproval",
      "type": "error"
    },
    {
      "inputs": [
        {
          "internalType": "address",
          "name": "approver",
          "type": "address"
        }
      ],
      "name": "ERC721InvalidApprover",
      "type": "error"
    },
    {
      "inputs": [
        {
          "internalType": "address",
          "name": "operator",
          "type": "address"
        }
      ],
      "name": "ERC721InvalidOperator",
      "type": "error"
    },
    {
      "inputs": [
        {
          "internalType": "address",
          "name": "owner",
          "type": "address"
        }
      ],
      "name": "ERC721InvalidOwner",
      "type": "error"
    },
    {
      "inputs": [
        {
          "internalType": "address",
          "name": "receiver",
          "type": "address"
        }
      ],
      "name": "ERC721InvalidReceiver",
      "type": "error"
    },
    {
      "inputs": [
        {
          "internalType": "address",
          "name": "sender",
          "type": "address"
        }
      ],
      "name": "ERC721InvalidSender",
      "type": "error"
    },
    {
      "inputs": [
        {
          "internalType": "uint256",
          "name": "tokenId",
          "type": "uint256"
        }
      ],
      "name": "ERC721NonexistentToken",
      "type": "error"
    },
    {
      "inputs": [
        {
          "internalType": "address",
          "name": "owner",
          "type": "address"
        }
      ],
      "name": "OwnableInvalidOwner",
      "type": "error"
    },
    {
      "inputs": [
        {
          "internalType": "address",
          "name": "account",
          "type": "address"
        }
      ],
      "name": "OwnableUnauthorizedAccount",
      "type": "error"
    },
    {
      "anonymous": false,
      "inputs": [
        {
          "indexed": true,
          "internalType": "address",
          "name": "owner",
          "type": "address"
        },
        {
          "indexed": true,
          "internalType": "address",
          "name": "approved",
          "type": "address"
        },
        {
          "indexed": true,
          "internalType": "uint256",
          "name": "tokenId",
          "type": "uint256"
        }
      ],
      "name": "Approval",
      "type": "event"
    },
    {
      "anonymous": false,
      "inputs": [
        {
          "indexed": true,
          "internalType": "address",
          "name": "owner",
          "type": "address"
        },
        {
          "indexed": true,
          "internalType": "address",
          "name": "operator",
          "type": "address"
        },
        {
          "indexed": false,
          "internalType": "bool",
          "name": "approved",
          "type": "bool"
        }
      ],
      "name": "ApprovalForAll",
      "type": "event"
    },
    {
      "anonymous": false,
      "inputs": [
        {
          "indexed": true,
          "internalType": "address",
          "name": "student",
          "type": "address"
        },
        {
          "indexed": true,
          "internalType": "uint256",
          "name": "tokenId",
          "type": "uint256"
        },
        {
          "indexed": false,
          "internalType": "bytes32",
          "name": "hash",
          "type": "bytes32"
        }
      ],
      "name": "DegreeMinted",
      "type": "event"
    },
    {
      "anonymous": false,
      "inputs": [
        {
          "indexed": true,
          "internalType": "address",
          "name": "previousOwner",
          "type": "address"
        },
        {
          "indexed": true,
          "internalType": "address",
          "name": "newOwner",
          "type": "address"
        }
      ],
      "name": "OwnershipTransferred",
      "type": "event"
    },
    {
      "anonymous": false,
      "inputs": [
        {
          "indexed": true,
          "internalType": "address",
          "name": "from",
          "type": "address"
        },
        {
          "indexed": true,
          "internalType": "address",
          "name": "to",
          "type": "address"
        },
        {
          "indexed": true,
          "internalType": "uint256",
          "name": "tokenId",
          "type": "uint256"
        }
      ],
      "name": "Transfer",
      "type": "event"
    },
    {
      "inputs": [
        {
          "internalType": "uint256",
          "name": "tokenId",
          "type": "uint256"
        },
        {
          "internalType": "bytes32",
          "name": "claimHash",
          "type": "bytes32"
        }
      ],
      "name": "addAttributeClaim",
      "outputs": [],
      "stateMutability": "nonpayable",
      "type": "function"
    },
    {
      "inputs": [
        {
          "internalType": "address",
          "name": "to",
          "type": "address"
        },
        {
          "internalType": "uint256",
          "name": "tokenId",
          "type": "uint256"
        }
      ],
      "name": "approve",
      "outputs": [],
      "stateMutability": "nonpayable",
      "type": "function"
    },
    {
      "inputs": [
        {
          "internalType": "uint256",
          "name": "",
          "type": "uint256"
        },
        {
          "internalType": "bytes32",
          "name": "",
          "type": "bytes32"
        }
      ],
      "name": "attributeClaims",
      "outputs": [
        {
          "internalType": "bool",
          "name": "",
          "type": "bool"
        }
      ],
      "stateMutability": "view",
      "type": "function"
    },
    {
      "inputs": [
        {
          "internalType": "address",
          "name": "owner",
          "type": "address"
        }
      ],
      "name": "balanceOf",
      "outputs": [
        {
          "internalType": "uint256",
          "name": "",
          "type": "uint256"
        }
      ],
      "stateMutability": "view",
      "type": "function"
    },
    {
      "inputs": [
        {
          "internalType": "uint256",
          "name": "",
          "type": "uint256"
        }
      ],
      "name": "credentialHashes",
      "outputs": [
        {
          "internalType": "bytes32",
          "name": "",
          "type": "bytes32"
        }
      ],
      "stateMutability": "view",
      "type": "function"
    },
    {
      "inputs": [
        {
          "internalType": "uint256",
          "name": "tokenId",
          "type": "uint256"
        }
      ],
      "name": "getApproved",
      "outputs": [
        {
          "internalType": "address",
          "name": "",
          "type": "address"
        }
      ],
      "stateMutability": "view",
      "type": "function"
    },
    {
      "inputs": [
        {
          "internalType": "address",
          "name": "owner",
          "type": "address"
        },
        {
          "internalType": "address",
          "name": "operator",
          "type": "address"
        }
      ],
      "name": "isApprovedForAll",
      "outputs": [
        {
          "internalType": "bool",
          "name": "",
          "type": "bool"
        }
      ],
      "stateMutability": "view",
      "type": "function"
    },
    {
      "inputs": [
        {
          "internalType": "address",
          "name": "student",
          "type": "address"
        },
        {
          "internalType": "string",
          "name": "_tokenURI",
          "type": "string"
        },
        {
          "internalType": "bytes32",
          "name": "_hash",
          "type": "bytes32"
        }
      ],
      "name": "mintDegree",
      "outputs": [
        {
          "internalType": "uint256",
          "name": "",
          "type": "uint256"
        }
      ],
      "stateMutability": "nonpayable",
      "type": "function"
    },
    {
      "inputs": [],
      "name": "name",
      "outputs": [
        {
          "internalType": "string",
          "name": "",
          "type": "string"
        }
      ],
      "stateMutability": "view",
      "type": "function"
    },
    {
      "inputs": [],
      "name": "owner",
      "outputs": [
        {
          "internalType": "address",
          "name": "",
          "type": "address"
        }
      ],
      "stateMutability": "view",
      "type": "function"
    },
    {
      "inputs": [
        {
          "internalType": "uint256",
          "name": "tokenId",
          "type": "uint256"
        }
      ],
      "name": "ownerOf",
      "outputs": [
        {
          "internalType": "address",
          "name": "",
          "type": "address"
        }
      ],
      "stateMutability": "view",
      "type": "function"
    },
    {
      "inputs": [],
      "name": "renounceOwnership",
      "outputs": [],
      "stateMutability": "nonpayable",
      "type": "function"
    },
    {
      "inputs": [
        {
          "internalType": "address",
          "name": "from",
          "type": "address"
        },
        {
          "internalType": "address",
          "name": "to",
          "type": "address"
        },
        {
          "internalType": "uint256",
          "name": "tokenId",
          "type": "uint256"
        }
      ],
      "name": "safeTransferFrom",
      "outputs": [],
      "stateMutability": "nonpayable",
      "type": "function"
    },
    {
      "inputs": [
        {
          "internalType": "address",
          "name": "from",
          "type": "address"
        },
        {
          "internalType": "address",
          "name": "to",
          "type": "address"
        },
        {
          "internalType": "uint256",
          "name": "tokenId",
          "type": "uint256"
        },
        {
          "internalType": "bytes",
          "name": "data",
          "type": "bytes"
        }
      ],
      "name": "safeTransferFrom",
      "outputs": [],
      "stateMutability": "nonpayable",
      "type": "function"
    },
    {
      "inputs": [
        {
          "internalType": "address",
          "name": "operator",
          "type": "address"
        },
        {
          "internalType": "bool",
          "name": "approved",
          "type": "bool"
        }
      ],
      "name": "setApprovalForAll",
      "outputs": [],
      "stateMutability": "nonpayable",
      "type": "function"
    },
    {
      "inputs": [
        {
          "internalType": "bytes4",
          "name": "interfaceId",
          "type": "bytes4"
        }
      ],
      "name": "supportsInterface",
      "outputs": [
        {
          "internalType": "bool",
          "name": "",
          "type": "bool"
        }
      ],
      "stateMutability": "view",
      "type": "function"
    },
    {
      "inputs": [],
      "name": "symbol",
      "outputs": [
        {
          "internalType": "string",
          "name": "",
          "type": "string"
        }
      ],
      "stateMutability": "view",
      "type": "function"
    },
    {
      "inputs": [
        {
          "internalType": "uint256",
          "name": "tokenId",
          "type": "uint256"
        }
      ],
      "name": "tokenURI",
      "outputs": [
        {
          "internalType": "string",
          "name": "",
          "type": "string"
        }
      ],
      "stateMutability": "view",
      "type": "function"
    },
    {
      "inputs": [
        {
          "internalType": "address",
          "name": "from",
          "type": "address"
        },
        {
          "internalType": "address",
          "name": "to",
          "type": "address"
        },
        {
          "internalType": "uint256",
          "name": "tokenId",
          "type": "uint256"
        }
      ],
      "name": "transferFrom",
      "outputs": [],
      "stateMutability": "nonpayable",
      "type": "function"
    },
    {
      "inputs": [
        {
          "internalType": "address",
          "name": "newOwner",
          "type": "address"
        }
      ],
      "name": "transferOwnership",
      "outputs": [],
      "stateMutability": "nonpayable",
      "type": "function"
    },
    {
      "inputs": [
        {
          "internalType": "uint256",
          "name": "tokenId",
          "type": "uint256"
        },
        {
          "internalType": "bytes32",
          "name": "claimHash",
          "type": "bytes32"
        }
      ],
      "name": "verifyAttribute",
      "outputs": [
        {
          "internalType": "bool",
          "name": "",
          "type": "bool"
        }
      ],
      "stateMutability": "view",
      "type": "function"
    },
    {
      "inputs": [
        {
          "internalType": "uint256",
          "name": "tokenId",
          "type": "uint256"
        },
        {
          "internalType": "bytes32",
          "name": "providedHash",
          "type": "bytes32"
        }
      ],
      "name": "verifyHash",
      "outputs": [
        {
          "internalType": "bool",
          "name": "",
          "type": "bool"
        }
      ],
      "stateMutability": "view",
      "type": "function"
    }
  ],
  "bytecode": "0x60806040523480156200001157600080fd5b5060405162002b7038038062002b70833981810160405281019062000037919062000288565b806040518060400160405280600f81526020017f4564755661756c742044656772656500000000000000000000000000000000008152506040518060400160405280600381526020017f45564400000000000000000000000000000000000000000000000000000000008152508160009081620000b5919062000534565b508060019081620000c7919062000534565b505050600073ffffffffffffffffffffffffffffffffffffffff168173ffffffffffffffffffffffffffffffffffffffff16036200013f5760006040517f1e4fbdf70000000000000000000000000000000000000000000000000000000081526004016200013691906200062c565b60405180910390fd5b62000150816200015860201b60201c565b505062000649565b6000600660009054906101000a900473ffffffffffffffffffffffffffffffffffffffff16905081600660006101000a81548173ffffffffffffffffffffffffffffffffffffffff021916908373ffffffffffffffffffffffffffffffffffffffff1602179055508173ffffffffffffffffffffffffffffffffffffffff168173ffffffffffffffffffffffffffffffffffffffff167f8be0079c531659141344cd1fd0a4f28419497f9722a3daafe3b4186f6b6457e060405160405180910390a35050565b600080fd5b600073ffffffffffffffffffffffffffffffffffffffff82169050919050565b6000620002508262000223565b9050919050565b620002628162000243565b81146200026e57600080fd5b50565b600081519050620002828162000257565b92915050565b600060208284031215620002a157620002a06200021e565b5b6000620002b18482850162000271565b91505092915050565b600081519050919050565b7f4e487b7100000000000000000000000000000000000000000000000000000000600052604160045260246000fd5b7f4e487b7100000000000000000000000000000000000000000000000000000000600052602260045260246000fd5b600060028204905060018216806200033c57607f821691505b602082108103620003525762000351620002f4565b5b50919050565b60008190508160005260206000209050919050565b60006020601f8301049050919050565b600082821b905092915050565b600060088302620003bc7fffffffffffffffffffffffffffffffffffffffffffffffffffffffffffffffff826200037d565b620003c886836200037d565b95508019841693508086168417925050509392505050565b6000819050919050565b6000819050919050565b6000620004156200040f6200040984620003e0565b620003ea565b620003e0565b9050919050565b6000819050919050565b6200043183620003f4565b6200044962000440826200041c565b8484546200038a565b825550505050565b600090565b6200046062000451565b6200046d81848462000426565b505050565b5b8181101562000495576200048960008262000456565b60018101905062000473565b5050565b601f821115620004e457620004ae8162000358565b620004b9846200036d565b81016020851015620004c9578190505b620004e1620004d8856200036d565b83018262000472565b50505b505050565b600082821c905092915050565b60006200050960001984600802620004e9565b1980831691505092915050565b6000620005248383620004f6565b9150826002028217905092915050565b6200053f82620002ba565b67ffffffffffffffff8111156200055b576200055a620002c5565b5b62000567825462000323565b6200057482828562000499565b600060209050601f831160018114620005ac576000841562000597578287015190505b620005a3858262000516565b86555062000613565b601f198416620005bc8662000358565b60005b82811015620005e657848901518255600182019150602085019450602081019050620005bf565b8683101562000606578489015162000602601f891682620004f6565b8355505b6001600288020188555050505b505050505050565b620006268162000243565b82525050565b60006020820190506200064360008301846200061b565b92915050565b61251780620006596000396000f3fe608060405234801561001057600080fd5b50600436106101425760003560e01c80638da5cb5b116100b8578063c04f4fc51161007c578063c04f4fc514610387578063c87b56dd146103a3578063e261aae0146103d3578063e985e9c514610403578063ec06d73b14610433578063f2fde38b1461046357610142565b80638da5cb5b146102e357806395d89b4114610301578063a22cb4651461031f578063a4700d561461033b578063b88d4fde1461036b57610142565b806323ec95401161010a57806323ec9540146101fd57806342842e0e1461022d5780636352211e1461024957806370a0823114610279578063715018a6146102a95780638b61b7c8146102b357610142565b806301ffc9a71461014757806306fdde0314610177578063081812fc14610195578063095ea7b3146101c557806323b872dd146101e1575b600080fd5b610161600480360381019061015c91906118f0565b61047f565b60405161016e9190611938565b60405180910390f35b61017f610561565b60405161018c91906119e3565b60405180910390f35b6101af60048036038101906101aa9190611a3b565b6105f3565b6040516101bc9190611aa9565b60405180910390f35b6101df60048036038101906101da9190611af0565b61060f565b005b6101fb60048036038101906101f69190611b30565b610625565b005b61021760048036038101906102129190611bb9565b610660565b6040516102249190611938565b60405180910390f35b61024760048036038101906102429190611b30565b61069c565b005b610263600480360381019061025e9190611a3b565b6106bc565b6040516102709190611aa9565b60405180910390f35b610293600480360381019061028e9190611bf9565b6106ce565b6040516102a09190611c35565b60405180910390f35b6102b1610788565b005b6102cd60048036038101906102c89190611a3b565b61079c565b6040516102da9190611c5f565b60405180910390f35b6102eb6107b4565b6040516102f89190611aa9565b60405180910390f35b6103096107de565b60405161031691906119e3565b60405180910390f35b61033960048036038101906103349190611ca6565b610870565b005b61035560048036038101906103509190611bb9565b610886565b6040516103629190611938565b60405180910390f35b61038560048036038101906103809190611e1b565b6108b5565b005b6103a1600480360381019061039c9190611bb9565b6108f0565b005b6103bd60048036038101906103b89190611a3b565b610939565b6040516103ca91906119e3565b60405180910390f35b6103ed60048036038101906103e89190611f3f565b6109e8565b6040516103fa9190611c35565b60405180910390f35b61041d60048036038101906104189190611fae565b610a93565b60405161042a9190611938565b60405180910390f35b61044d60048036038101906104489190611bb9565b610b27565b60405161045a9190611938565b60405180910390f35b61047d60048036038101906104789190611bf9565b610b47565b005b60007f80ac58cd000000000000000000000000000000000000000000000000000000007bffffffffffffffffffffffffffffffffffffffffffffffffffffffff1916827bffffffffffffffffffffffffffffffffffffffffffffffffffffffff1916148061054a57507f5b5e139f000000000000000000000000000000000000000000000000000000007bffffffffffffffffffffffffffffffffffffffffffffffffffffffff1916827bffffffffffffffffffffffffffffffffffffffffffffffffffffffff1916145b8061055a575061055982610bcd565b5b9050919050565b6060600080546105709061201d565b80601f016020809104026020016040519081016040528092919081815260200182805461059c9061201d565b80156105e95780601f106105be576101008083540402835291602001916105e9565b820191906000526020600020905b8154815290600101906020018083116105cc57829003601f168201915b5050505050905090565b60006105fe82610c37565b5061060882610cbf565b9050919050565b610621828261061c610cfc565b610d04565b5050565b6040517f08c379a0000000000000000000000000000000000000000000000000000000008152600401610657906120c0565b60405180910390fd5b600060096000848152602001908152602001600020600083815260200190815260200160002060009054906101000a900460ff16905092915050565b6106b7838383604051806020016040528060008152506108b5565b505050565b60006106c782610c37565b9050919050565b60008073ffffffffffffffffffffffffffffffffffffffff168273ffffffffffffffffffffffffffffffffffffffff16036107415760006040517f89c62b640000000000000000000000000000000000000000000000000000000081526004016107389190611aa9565b60405180910390fd5b600360008373ffffffffffffffffffffffffffffffffffffffff1673ffffffffffffffffffffffffffffffffffffffff168152602001908152602001600020549050919050565b610790610d16565b61079a6000610d9d565b565b60086020528060005260406000206000915090505481565b6000600660009054906101000a900473ffffffffffffffffffffffffffffffffffffffff16905090565b6060600180546107ed9061201d565b80601f01602080910402602001604051908101604052809291908181526020018280546108199061201d565b80156108665780601f1061083b57610100808354040283529160200191610866565b820191906000526020600020905b81548152906001019060200180831161084957829003601f168201915b5050505050905090565b61088261087b610cfc565b8383610e63565b5050565b60096020528160005260406000206020528060005260406000206000915091509054906101000a900460ff1681565b6040517f08c379a00000000000000000000000000000000000000000000000000000000081526004016108e7906120c0565b60405180910390fd5b6108f8610d16565b600160096000848152602001908152602001600020600083815260200190815260200160002060006101000a81548160ff0219169083151502179055505050565b606061094482610c37565b50600a600083815260200190815260200160002080546109639061201d565b80601f016020809104026020016040519081016040528092919081815260200182805461098f9061201d565b80156109dc5780601f106109b1576101008083540402835291602001916109dc565b820191906000526020600020905b8154815290600101906020018083116109bf57829003601f168201915b50505050509050919050565b60006109f2610d16565b600060076000815480929190610a079061210f565b919050559050610a178582610fd2565b610a218185610ff0565b826008600083815260200190815260200160002081905550808573ffffffffffffffffffffffffffffffffffffffff167fcda47124ef5271715858955e69625f512b12b7e8ffae49087d3e6f43a3739ebf85604051610a809190611c5f565b60405180910390a3809150509392505050565b6000600560008473ffffffffffffffffffffffffffffffffffffffff1673ffffffffffffffffffffffffffffffffffffffff16815260200190815260200160002060008373ffffffffffffffffffffffffffffffffffffffff1673ffffffffffffffffffffffffffffffffffffffff16815260200190815260200160002060009054906101000a900460ff16905092915050565b600081600860008581526020019081526020016000205414905092915050565b610b4f610d16565b600073ffffffffffffffffffffffffffffffffffffffff168173ffffffffffffffffffffffffffffffffffffffff1603610bc15760006040517f1e4fbdf7000000000000000000000000000000000000000000000000000000008152600401610bb89190611aa9565b60405180910390fd5b610bca81610d9d565b50565b60007f01ffc9a7000000000000000000000000000000000000000000000000000000007bffffffffffffffffffffffffffffffffffffffffffffffffffffffff1916827bffffffffffffffffffffffffffffffffffffffffffffffffffffffff1916149050919050565b600080610c4383611015565b9050600073ffffffffffffffffffffffffffffffffffffffff168173ffffffffffffffffffffffffffffffffffffffff1603610cb657826040517f7e273289000000000000000000000000000000000000000000000000000000008152600401610cad9190611c35565b60405180910390fd5b80915050919050565b60006004600083815260200190815260200160002060009054906101000a900473ffffffffffffffffffffffffffffffffffffffff169050919050565b600033905090565b610d118383836001611052565b505050565b610d1e610cfc565b73ffffffffffffffffffffffffffffffffffffffff16610d3c6107b4565b73ffffffffffffffffffffffffffffffffffffffff1614610d9b57610d5f610cfc565b6040517f118cdaa7000000000000000000000000000000000000000000000000000000008152600401610d929190611aa9565b60405180910390fd5b565b6000600660009054906101000a900473ffffffffffffffffffffffffffffffffffffffff16905081600660006101000a81548173ffffffffffffffffffffffffffffffffffffffff021916908373ffffffffffffffffffffffffffffffffffffffff1602179055508173ffffffffffffffffffffffffffffffffffffffff168173ffffffffffffffffffffffffffffffffffffffff167f8be0079c531659141344cd1fd0a4f28419497f9722a3daafe3b4186f6b6457e060405160405180910390a35050565b600073ffffffffffffffffffffffffffffffffffffffff168273ffffffffffffffffffffffffffffffffffffffff1603610ed457816040517f5b08ba18000000000000000000000000000000000000000000000000000000008152600401610ecb9190611aa9565b60405180910390fd5b80600560008573ffffffffffffffffffffffffffffffffffffffff1673ffffffffffffffffffffffffffffffffffffffff16815260200190815260200160002060008473ffffffffffffffffffffffffffffffffffffffff1673ffffffffffffffffffffffffffffffffffffffff16815260200190815260200160002060006101000a81548160ff0219169083151502179055508173ffffffffffffffffffffffffffffffffffffffff168373ffffffffffffffffffffffffffffffffffffffff167f17307eab39ab6107e8899845ad3d59bd9653f200f220920489ca2b5937696c3183604051610fc59190611938565b60405180910390a3505050565b610fec828260405180602001604052806000815250611217565b5050565b80600a600084815260200190815260200160002090816110109190612303565b505050565b60006002600083815260200190815260200160002060009054906101000a900473ffffffffffffffffffffffffffffffffffffffff169050919050565b808061108b5750600073ffffffffffffffffffffffffffffffffffffffff168273ffffffffffffffffffffffffffffffffffffffff1614155b156111bf57600061109b84610c37565b9050600073ffffffffffffffffffffffffffffffffffffffff168373ffffffffffffffffffffffffffffffffffffffff161415801561110657508273ffffffffffffffffffffffffffffffffffffffff168173ffffffffffffffffffffffffffffffffffffffff1614155b801561111957506111178184610a93565b155b1561115b57826040517fa9fbf51f0000000000000000000000000000000000000000000000000000000081526004016111529190611aa9565b60405180910390fd5b81156111bd57838573ffffffffffffffffffffffffffffffffffffffff168273ffffffffffffffffffffffffffffffffffffffff167f8c5be1e5ebec7d5bd14f71427d1e84f3dd0314c0f7b2291e5b200ac8c7c3b92560405160405180910390a45b505b836004600085815260200190815260200160002060006101000a81548173ffffffffffffffffffffffffffffffffffffffff021916908373ffffffffffffffffffffffffffffffffffffffff16021790555050505050565b611221838361123b565b61123661122c610cfc565b6000858585611334565b505050565b600073ffffffffffffffffffffffffffffffffffffffff168273ffffffffffffffffffffffffffffffffffffffff16036112ad5760006040517f64a0ae920000000000000000000000000000000000000000000000000000000081526004016112a49190611aa9565b60405180910390fd5b60006112bb838360006114e5565b9050600073ffffffffffffffffffffffffffffffffffffffff168173ffffffffffffffffffffffffffffffffffffffff161461132f5760006040517f73c6ac6e0000000000000000000000000000000000000000000000000000000081526004016113269190611aa9565b60405180910390fd5b505050565b60008373ffffffffffffffffffffffffffffffffffffffff163b11156114de578273ffffffffffffffffffffffffffffffffffffffff1663150b7a02868685856040518563ffffffff1660e01b8152600401611393949392919061242a565b6020604051808303816000875af19250505080156113cf57506040513d601f19601f820116820180604052508101906113cc919061248b565b60015b611453573d80600081146113ff576040519150601f19603f3d011682016040523d82523d6000602084013e611404565b606091505b50600081510361144b57836040517f64a0ae920000000000000000000000000000000000000000000000000000000081526004016114429190611aa9565b60405180910390fd5b805160208201fd5b63150b7a0260e01b7bffffffffffffffffffffffffffffffffffffffffffffffffffffffff1916817bffffffffffffffffffffffffffffffffffffffffffffffffffffffff1916146114dc57836040517f64a0ae920000000000000000000000000000000000000000000000000000000081526004016114d39190611aa9565b60405180910390fd5b505b5050505050565b6000806114f184611015565b9050600073ffffffffffffffffffffffffffffffffffffffff168373ffffffffffffffffffffffffffffffffffffffff1614611533576115328184866116ff565b5b600073ffffffffffffffffffffffffffffffffffffffff168173ffffffffffffffffffffffffffffffffffffffff16146115c457611575600085600080611052565b6001600360008373ffffffffffffffffffffffffffffffffffffffff1673ffffffffffffffffffffffffffffffffffffffff168152602001908152602001600020600082825403925050819055505b600073ffffffffffffffffffffffffffffffffffffffff168573ffffffffffffffffffffffffffffffffffffffff1614611647576001600360008773ffffffffffffffffffffffffffffffffffffffff1673ffffffffffffffffffffffffffffffffffffffff168152602001908152602001600020600082825401925050819055505b846002600086815260200190815260200160002060006101000a81548173ffffffffffffffffffffffffffffffffffffffff021916908373ffffffffffffffffffffffffffffffffffffffff160217905550838573ffffffffffffffffffffffffffffffffffffffff168273ffffffffffffffffffffffffffffffffffffffff167fddf252ad1be2c89b69c2b068fc378daa952ba7f163c4a11628f55a4df523b3ef60405160405180910390a4809150509392505050565b61170a8383836117c3565b6117be57600073ffffffffffffffffffffffffffffffffffffffff168373ffffffffffffffffffffffffffffffffffffffff160361177f57806040517f7e2732890000000000000000000000000000000000000000000000000000000081526004016117769190611c35565b60405180910390fd5b81816040517f177e802f0000000000000000000000000000000000000000000000000000000081526004016117b59291906124b8565b60405180910390fd5b505050565b60008073ffffffffffffffffffffffffffffffffffffffff168373ffffffffffffffffffffffffffffffffffffffff161415801561187b57508273ffffffffffffffffffffffffffffffffffffffff168473ffffffffffffffffffffffffffffffffffffffff16148061183c575061183b8484610a93565b5b8061187a57508273ffffffffffffffffffffffffffffffffffffffff1661186283610cbf565b73ffffffffffffffffffffffffffffffffffffffff16145b5b90509392505050565b6000604051905090565b600080fd5b600080fd5b60007fffffffff0000000000000000000000000000000000000000000000000000000082169050919050565b6118cd81611898565b81146118d857600080fd5b50565b6000813590506118ea816118c4565b92915050565b6000602082840312156119065761190561188e565b5b6000611914848285016118db565b91505092915050565b60008115159050919050565b6119328161191d565b82525050565b600060208201905061194d6000830184611929565b92915050565b600081519050919050565b600082825260208201905092915050565b60005b8381101561198d578082015181840152602081019050611972565b60008484015250505050565b6000601f19601f8301169050919050565b60006119b582611953565b6119bf818561195e565b93506119cf81856020860161196f565b6119d881611999565b840191505092915050565b600060208201905081810360008301526119fd81846119aa565b905092915050565b6000819050919050565b611a1881611a05565b8114611a2357600080fd5b50565b600081359050611a3581611a0f565b92915050565b600060208284031215611a5157611a5061188e565b5b6000611a5f84828501611a26565b91505092915050565b600073ffffffffffffffffffffffffffffffffffffffff82169050919050565b6000611a9382611a68565b9050919050565b611aa381611a88565b82525050565b6000602082019050611abe6000830184611a9a565b92915050565b611acd81611a88565b8114611ad857600080fd5b50565b600081359050611aea81611ac4565b92915050565b60008060408385031215611b0757611b0661188e565b5b6000611b1585828601611adb565b9250506020611b2685828601611a26565b9150509250929050565b600080600060608486031215611b4957611b4861188e565b5b6000611b5786828701611adb565b9350506020611b6886828701611adb565b9250506040611b7986828701611a26565b9150509250925092565b6000819050919050565b611b9681611b83565b8114611ba157600080fd5b50565b600081359050611bb381611b8d565b92915050565b60008060408385031215611bd057611bcf61188e565b5b6000611bde85828601611a26565b9250506020611bef85828601611ba4565b9150509250929050565b600060208284031215611c0f57611c0e61188e565b5b6000611c1d84828501611adb565b91505092915050565b611c2f81611a05565b82525050565b6000602082019050611c4a6000830184611c26565b92915050565b611c5981611b83565b82525050565b6000602082019050611c746000830184611c50565b92915050565b611c838161191d565b8114611c8e57600080fd5b50565b600081359050611ca081611c7a565b92915050565b60008060408385031215611cbd57611cbc61188e565b5b6000611ccb85828601611adb565b9250506020611cdc85828601611c91565b9150509250929050565b600080fd5b600080fd5b7f4e487b7100000000000000000000000000000000000000000000000000000000600052604160045260246000fd5b611d2882611999565b810181811067ffffffffffffffff82111715611d4757611d46611cf0565b5b80604052505050565b6000611d5a611884565b9050611d668282611d1f565b919050565b600067ffffffffffffffff821115611d8657611d85611cf0565b5b611d8f82611999565b9050602081019050919050565b82818337600083830152505050565b6000611dbe611db984611d6b565b611d50565b905082815260208101848484011115611dda57611dd9611ceb565b5b611de5848285611d9c565b509392505050565b600082601f830112611e0257611e01611ce6565b5b8135611e12848260208601611dab565b91505092915050565b60008060008060808587031215611e3557611e3461188e565b5b6000611e4387828801611adb565b9450506020611e5487828801611adb565b9350506040611e6587828801611a26565b925050606085013567ffffffffffffffff811115611e8657611e85611893565b5b611e9287828801611ded565b91505092959194509250565b600067ffffffffffffffff821115611eb957611eb8611cf0565b5b611ec282611999565b9050602081019050919050565b6000611ee2611edd84611e9e565b611d50565b905082815260208101848484011115611efe57611efd611ceb565b5b611f09848285611d9c565b509392505050565b600082601f830112611f2657611f25611ce6565b5b8135611f36848260208601611ecf565b91505092915050565b600080600060608486031215611f5857611f5761188e565b5b6000611f6686828701611adb565b935050602084013567ffffffffffffffff811115611f8757611f86611893565b5b611f9386828701611f11565b9250506040611fa486828701611ba4565b9150509250925092565b60008060408385031215611fc557611fc461188e565b5b6000611fd385828601611adb565b9250506020611fe485828601611adb565b9150509250929050565b7f4e487b7100000000000000000000000000000000000000000000000000000000600052602260045260246000fd5b6000600282049050600182168061203557607f821691505b60208210810361204857612047611fee565b5b50919050565b7f4564755661756c745342543a20536f756c626f756e6420746f6b656e7320636160008201527f6e6e6f74206265207472616e7366657272656400000000000000000000000000602082015250565b60006120aa60338361195e565b91506120b58261204e565b604082019050919050565b600060208201905081810360008301526120d98161209d565b9050919050565b7f4e487b7100000000000000000000000000000000000000000000000000000000600052601160045260246000fd5b600061211a82611a05565b91507fffffffffffffffffffffffffffffffffffffffffffffffffffffffffffffffff820361214c5761214b6120e0565b5b600182019050919050565b60008190508160005260206000209050919050565b60006020601f8301049050919050565b600082821b905092915050565b6000600883026121b97fffffffffffffffffffffffffffffffffffffffffffffffffffffffffffffffff8261217c565b6121c3868361217c565b95508019841693508086168417925050509392505050565b6000819050919050565b60006122006121fb6121f684611a05565b6121db565b611a05565b9050919050565b6000819050919050565b61221a836121e5565b61222e61222682612207565b848454612189565b825550505050565b600090565b612243612236565b61224e818484612211565b505050565b5b818110156122725761226760008261223b565b600181019050612254565b5050565b601f8211156122b75761228881612157565b6122918461216c565b810160208510156122a0578190505b6122b46122ac8561216c565b830182612253565b50505b505050565b600082821c905092915050565b60006122da600019846008026122bc565b1980831691505092915050565b60006122f383836122c9565b9150826002028217905092915050565b61230c82611953565b67ffffffffffffffff81111561232557612324611cf0565b5b61232f825461201d565b61233a828285612276565b600060209050601f83116001811461236d576000841561235b578287015190505b61236585826122e7565b8655506123cd565b601f19841661237b86612157565b60005b828110156123a35784890151825560018201915060208501945060208101905061237e565b868310156123c057848901516123bc601f8916826122c9565b8355505b6001600288020188555050505b505050505050565b600081519050919050565b600082825260208201905092915050565b60006123fc826123d5565b61240681856123e0565b935061241681856020860161196f565b61241f81611999565b840191505092915050565b600060808201905061243f6000830187611a9a565b61244c6020830186611a9a565b6124596040830185611c26565b818103606083015261246b81846123f1565b905095945050505050565b600081519050612485816118c4565b92915050565b6000602082840312156124a1576124a061188e565b5b60006124af84828501612476565b91505092915050565b60006040820190506124cd6000830185611a9a565b6124da6020830184611c26565b939250505056fea26469706673582212202d14be5e6c921ec4dbf5e3d21c3f58690c59a24cee7e09d36b9e67f323fc6ad864736f6c63430008140033",
  "linkReferences": {},
  "deployedLinkReferences": {}
}